:020000040800F2
:1000000070060020890100087D0300082D03000808
:1000100079030008C3020008790700080000000007
:100020000000000000000000000000008103000844
:10003000C7020008000000007F0300086D040008EC
:10004000A3010008A3010008A3010008A301000800
:10005000A3010008A3010008C9020008A3010008C9
:10006000A3010008A3010008A3010008A3010008E0
:10007000A3010008A3010008A3010008A3010008D0
:10008000A3010008A3010008A3010008A3010008C0
:10009000A3010008A3010008A3010008A3010008B0
:1000A000A3010008A3010008A3010008A3010008A0
:1000B000A3010008A3010008A3010008A301000890
:1000C000A3010008A3010008A3010008A301000880
:1000D000A3010008D1040008A3010008A30100083F
:1000E000A3010008A3010008A301000800F002F822
:1000F00000F03AF80AA090E8000C82448344AAF188
:100100000107DA4501D100F02FF8AFF2090EBAE885
:100110000F0013F0010F18BFFB1A43F0010318473B
:100120008C060000AC060000103A24BF78C878C1E5
:10013000FAD8520724BF30C830C144BF04680C60ED
:10014000704700000023002400250026103A28BF35
:1001500078C1FBD8520728BF30C148BF0B60704739
:100160001FB51FBD10B510BD00F071F81146FFF7A7
:10017000F7FF00F003FB00F08FF803B4FFF7F2FF86
:1001800003BC00F097F80000094880470948004781
:10019000FEE7FEE7FEE7FEE7FEE7FEE7FEE7FEE737
:1001A000FEE7FEE704480549054A064B7047000094
:1001B00071040008ED0000087000002070060020A7
:1001C00070020020700200204FF0013C50F8042B18
:1001D00051F8043B9A4221D1A2EB0C03934313EA5A
:1001E000CC1317D150F8042B51F8043B9A4215D187
:1001F000A2EB0C03934313EACC130BD150F8042B5E
:1002000051F8043B9A4209D1A2EB0C03934313EA41
:10021000CC13DBD04FF00000704700BFD01A01BAFA
:10022000B1FA81F101F0180122FA01F0CB40C1F1DD
:100230002001DBB2C0B2C01A2CFA01F3D11A9143EB
:1002400011EAC311E6D17047704770477047754691
:1002500000F02CF8AE4605006946534620F0070032
:10026000854618B020B5FFF79DFFBDE820404FF050
:1002700000064FF000074FF000084FF0000B21F090
:100280000701AC46ACE8C009ACE8C009ACE8C0095D
:10029000ACE8C0098D46704710B50446AFF3008046
:1002A0002046BDE81040FFF768BF000000487047D7
:1002B0001000002001491820ABBEFEE72600020016
:1002C000704700BFFEE7704710B5012000F00CF842
:1002D00010B1012000F002F810BD000001490860D3
:1002E0007047000014040140014600200022074B23
:1002F0001B6803EA0102054B14331B680B4013B162
:100300000AB1012000E00020704700000004014015
:100310000548006820F47F600349086008460068CB
:1003200040F40870086070470008014000BFFEE715
:1003300001280ED131B10F4A126842F002020D4B72
:100340001A6016E00B4A126822F00202094B1A608A
:100350000FE002280DD131B1064A126842F00402C2
:10036000044B1A6005E0034A126822F00402014BB4
:100370001A6070470C08014000BFFEE770477047E5
:10038000704710B500F002F810BD00000CB5002059
:10039000019000903348006840F480303149086093
:1003A00000BF3048006800F4003000900198401C05
:1003B0000190009818B90198B0F5A06FF1D12948C3
:1003C000006800F4003010B10120009001E000202E
:1003D00000900098012843D12348006840F01000A5
:1003E000214908600846006820F0070008600846B8
:1003F000006840F0020008601A48406819494860E7
:100400000846406848600846406840F4806048609C
:100410000846406820F47C1048600846406840F474
:10042000E81048600846006840F08070086000BF2F
:100430000C48006800F000700028F9D009484068B6
:1004400020F00300074948600846406840F0020079
:10045000486000BF0348406800F00C000828F9D14C
:100460000CBD000000100240002002407047000058
:1004700010B51348006840F00100114908600846B3
:100480004068104908400E494860084600680E4917
:1004900008400B4908600846006820F48020086086
:1004A0000846406820F4FE0048604FF41F00886052
:1004B000FFF767FF4FF000600449086010BD0000BF
:1004C000001002400000FFF8FFFFF6FE08ED00E01C
:1004D00010B54748008800F0200000286FD044483D
:1004E000001D0088C4B201210220FFF721FF0D2C5E
:1004F00001D00A2C6ED100203E493F4A1268885430
:100500003D4908603DA13A4800F022F9012102204E
:10051000FFF70EFF3BA13748FFF756FE40B9012118
:100520000846FFF705FF38A1314800F011F95DE0FA
:1005300038A13048FFF748FE40B900210120FFF7FD
:10054000F7FE36A12A4800F003F94FE036A129480A
:10055000FFF73AFE40B901210220FFF7E9FE33A17F
:10056000234800F0F5F841E033A12248FFF72CFEC4
:1005700040B900210220FFF7DBFE31A11C4800F04A
:10058000E7F833E031A11B48FFF71EFEE8B9314818
:10059000006800F0020020B11BA1154800F0D8F857
:1005A00003E01EA1124800F0D3F82A48006800F0CA
:1005B000040028B11DA10E4800F0CAF816E016E0AC
:1005C0001FA10B4800F0C4F810E023A1084800F078
:1005D000BFF80BE008480068092807D20648016800
:1005E0000068401C044A10600248445400BF10BD1B
:1005F00000380140040000200000002068656C6C99
:100600006F0000004F4E31004C454431204F4E0DDD
:100610000A0000004F464631000000004C454431BE
:10062000204F46460D0A00004F4E32004C454432E2
:10063000204F4E0D0A0000004F46463200000000D9
:100640004C454432204F46460D0A00005354415455
:10065000555300000C080140556E6B6E6F776E208D
:10066000636F6D6D616E640D0A000000024600202C
:10067000B1F5007F00D100BF13880B400BB1012002
:1006800000E000207047000010B52A48806940F45F
:100690008040284988610846806940F004008861EC
:1006A0000846806940F0010088612348006820F016
:1006B000F000214908600846006840F0A00008608A
:1006C0000846006820F4706008600846006840F43E
:1006D0008060086041F64C5018490880081D008869
:1006E00042F20C0108431549091D0880084600889C
:1006F00040F02000088025200121002807DA0A07A1
:10070000140E0F4A00F00F031B1FD45403E00A0716
:10071000130E0C4A135400BF252000F01F020121C4
:1007200091404209920002F1E022C2F8001100BF9C
:1007300010BD0000001002400408014008380140CC
:1007400018ED00E000E400E0C1F308028280704789
:1007500070B505460C460BE021782846FFF7F4FFFC
:1007600000BF40212846FFF781FF0128F9D1641C12
:1007700020780028F0D170BD00BFFEE7FFF784FFAE
:10078000FFF7C6FD00210120FFF7D2FD0021022066
:10079000FFF7CEFD02A10448FFF7DAFF00BFFEE736
:1007A000737461727400000000380140CC070008C7
:1007B000000000200400000028010008D007000805
:1007C000040000206C060000440100080000000046
:04000005080000ED02
:00000001FF
