:020000040800F2
:100000008006002089010008ED040008D1040008E2
:10001000E9040008430200088D0600080000000003
:1000200000000000000000000000000011050008B2
:100030004702000800000000EF0400081106000855
:10004000A3010008A3010008A3010008A301000800
:10005000A3010008A301000849020008A301000849
:10006000A3010008A3010008A3010008A3010008E0
:10007000A3010008A3010008A3010008A3010008D0
:10008000A3010008A3010008A3010008A3010008C0
:10009000A3010008A3010008A3010008A3010008B0
:1000A000A3010008A3010008A3010008A3010008A0
:1000B000A3010008A3010008A3010008A301000890
:1000C000A3010008A3010008A3010008A301000880
:1000D000A3010008A3010008A3010008A301000870
:1000E000A3010008A3010008A301000800F002F822
:1000F00000F03AF80AA090E8000C82448344AAF188
:100100000107DA4501D100F02FF8AFF2090EBAE885
:100110000F0013F0010F18BFFB1A43F0010318473B
:100120003806000058060000103A24BF78C878C18D
:10013000FAD8520724BF30C830C144BF04680C60ED
:10014000704700000023002400250026103A28BF35
:1001500078C1FBD8520728BF30C148BF0B60704739
:100160001FB51FBD10B510BD00F031F81146FFF7E7
:10017000F7FF00F0EDFA00F04FF803B4FFF7F2FFDD
:1001800003BC00F057F800000948804709480047C1
:10019000FEE7FEE7FEE7FEE7FEE7FEE7FEE7FEE737
:1001A000FEE7FEE704480549054A064B7047000094
:1001B0002D060008ED0000088000002080060020C9
:1001C000800200208002002070477047704775460B
:1001D00000F02CF8AE4605006946534620F00700B3
:1001E000854618B020B5FFF7DDFFBDE820404FF091
:1001F00000064FF000074FF000084FF0000B21F011
:100200000701AC46ACE8C009ACE8C009ACE8C009DD
:10021000ACE8C0098D46704710B50446AFF30080C6
:100220002046BDE81040FFF7A8BF00000048704717
:100230001C00002001491820ABBEFEE7260002008A
:10024000704700BFFEE7704710B5012000F02AF8A4
:10025000D8B101210D4800F02EF930B901200C4928
:10026000087000200B4908600CE000200849087065
:1002700008480068B0F57A7F02D200F0BFF901E0CB
:1002800000F028F9012000F007F810BD0008014037
:1002900004000020000000200149086070470000B1
:1002A00014040140014600200022074B1B6803EAAA
:1002B0000102054B14331B680B4013B10AB1012036
:1002C00000E00020704700000004014000212349A5
:1002D0008279002A3AD00A46126803689A430B468C
:1002E0001A600A1D126803689A430B1D1A6002798E
:1002F00011440A6803681A430A60184A08321268EF
:1003000003689A43154B08331A601A1D1268036874
:100310009A43124B0C331A604279102A0ED11A1FDD
:10032000126803681A430D4B08331A601A1D1268CD
:1003300003681A43094B0C331A600DE007494279F0
:1003400011440A6803681A430A6005E002791144FF
:100350000A6803689A430A6070470000000401407D
:1003600030B500228B071C0F0F2303FA04F20B4B4E
:100370008C1053F824309343084C8D1044F82530EA
:1003800023468C1053F824308C07240F00FA04F411
:100390002343024C8D1044F8253030BD0800014045
:1003A0002DE9F0410246002500260020002300240C
:1003B000002791F803C00CF00F0591F803C00CF072
:1003C000100CBCF1000F03D091F802C04CEA0505F7
:1003D00091F800C0BCF1000F31D0146800202BE070
:1003E0004FF0010C0CFA00F3B1F800C00CEA030660
:1003F0009E4220D183004FF00F0C0CFA03F7BC4350
:1004000005FA03FC4CEA040491F803C0BCF1280F80
:1004100006D14FF0010C0CFA00FCC2F814C00AE03F
:1004200091F803C0BCF1480F05D14FF0010C0CFA54
:1004300000FCC2F810C0401C0828D1D31460B1F8E9
:1004400000C0BCF1FF0F34DD546800202EE000F145
:10045000080C4FF0010808FA0CF3B1F800C00CEAE0
:1004600003069E4221D183004FF00F0C0CFA03F7D4
:10047000BC4305FA03FC4CEA040491F803C0BCF148
:10048000280F05D100F1080C08FA0CF8C2F8148006
:1004900091F803C0BCF1480F07D100F1080C4FF0F0
:1004A000010808FA0CF8C2F81080401C0828CED3C6
:1004B0005460BDE8F0810246002093680B400BB108
:1004C000012000E0002070474161704701617047E2
:1004D00000BFFEE710B54FF400510248FFF7F4FFEC
:1004E00010BD00000010014000BFFEE770477047DC
:1004F00029B1064A92690243044B9A6104E0034A17
:1005000092698243014B9A617047000000100240DB
:10051000704710B500F002F810BD00000CB50020C7
:10052000019000903348006840F480303149086001
:1005300000BF3048006800F4003000900198401C73
:100540000190009818B90198B0F5A06FF1D1294831
:10055000006800F4003010B10120009001E000209C
:1005600000900098012843D12348006840F0100013
:10057000214908600846006820F007000860084626
:10058000006840F0020008601A4840681949486055
:100590000846406848600846406840F4806048600B
:1005A0000846406820F47C1048600846406840F4E3
:1005B000E81048600846006840F08070086000BF9E
:1005C0000C48006800F000700028F9D00948406825
:1005D00020F00300074948600846406840F00200E8
:1005E000486000BF0348406800F00C000828F9D1BB
:1005F0000CBD0000001002400020024010B54FF476
:1006000000510248FFF762FF10BD000000100140DA
:1006100004480078012804D103480068401C0249BE
:1006200008607047040000200000002010B5134847
:10063000006840F001001149086008464068104910
:1006400008400E494860084600680E4908400B49BA
:1006500008600846006820F480200860084640686A
:1006600020F4FE0048604FF41F008860FFF751FF40
:100670004FF000600449086010BD00000010024007
:100680000000FFF8FFFFF6FE08ED00E000BFFEE708
:100690003EB501210420FFF72BFF0120ADF8080033
:1006A00004208DF80B0002A92548FFF779FE0121EF
:1006B0000846FFF71DFF00210846FFF751FE012005
:1006C000009000208DF8040010208DF80500012016
:1006D0008DF806006846FFF7F9FD062001218140EC
:1006E0004209920002F1E022C2F8001100BF154851
:1006F00000684FF47A72B0FBF2F1B1F1807F00D361
:100700001DE021F07F40401E4FF0E0225061501765
:100710000F22002807DA13071D0E0B4B00F00F0401
:10072000241F1D5503E013071C0E084B1C5400BF6B
:1007300000204FF0E02290610720106100BF3EBD15
:10074000000801400800002018ED00E000E400E08F
:10075000FFF79EFF00BFFEE77807000800000020BB
:100760001C00000028010008940700081C0000205D
:1007700064060000440100080000000000000000C2
:1007800000A24A040000000000000000010203046F
:040790000607080947
:04000005080000ED02
:00000001FF
