:020000040800F2
:1000000068060020890100089B020008930200088E
:100010009702000843020008E10400080000000005
:100020000000000000000000000000009F02000827
:1000300047020008000000009D0200088903000834
:10004000A3010008A3010008A3010008A301000800
:10005000A3010008A301000849020008A301000849
:10006000A3010008A3010008A3010008A3010008E0
:10007000A3010008A3010008A3010008A3010008D0
:10008000A3010008A3010008A3010008A3010008C0
:10009000A3010008A3010008A3010008A3010008B0
:1000A000A3010008A3010008A3010008A3010008A0
:1000B000A3010008ED030008A3010008A301000844
:1000C000A3010008A3010008A3010008A301000880
:1000D000A3010008A3010008A3010008A301000870
:1000E000A3010008A3010008A301000800F002F822
:1000F00000F03AF80AA090E8000C82448344AAF188
:100100000107DA4501D100F02FF8AFF2090EBAE885
:100110000F0013F0010F18BFFB1A43F0010318473B
:10012000F003000010040000103A24BF78C878C122
:10013000FAD8520724BF30C830C144BF04680C60ED
:10014000704700000023002400250026103A28BF35
:1001500078C1FBD8520728BF30C148BF0B60704739
:100160001FB51FBD10B510BD00F031F81146FFF7E7
:10017000F7FF00F0B7F900F04FF803B4FFF7F2FF14
:1001800003BC00F057F800000948804709480047C1
:10019000FEE7FEE7FEE7FEE7FEE7FEE7FEE7FEE737
:1001A000FEE7FEE704480549054A064B7047000094
:1001B0008D030008ED00000868000020680600209C
:1001C000680200206802002070477047704775463B
:1001D00000F02CF8AE4605006946534620F00700B3
:1001E000854618B020B5FFF7DDFFBDE820404FF091
:1001F00000064FF000074FF000084FF0000B21F011
:100200000701AC46ACE8C009ACE8C009ACE8C009DD
:10021000ACE8C0098D46704710B50446AFF30080C6
:100220002046BDE81040FFF7A8BF00000048704717
:100230000800002001491820ABBEFEE7260002009E
:10024000704700BFFEE7704710B5012000F00CF8C2
:1002500010B1012000F002F810BD00000149086053
:100260007047000014040140014600200022074BA3
:100270001B6803EA0102054B14331B680B4013B1E2
:100280000AB1012000E00020704700000004014096
:10029000704700BFFEE700BFFEE77047704770473A
:1002A00010B500F001F810BD0CB5002001900090D1
:1002B0003348006840F480303149086000BF30485E
:1002C000006800F4003000900198401C01900098F4
:1002D00018B90198B0F5A06FF1D12948006800F471
:1002E000003010B10120009001E000200090009843
:1002F000012843D12348006840F0100021490860DC
:100300000846006820F0070008600846006840F0D2
:10031000020008601A484068194948600846406869
:1003200048600846406840F480604860084640687D
:1003300020F47C1048600846406840F4E8104860AB
:100340000846006840F08070086000BF0C480068F4
:1003500000F000700028F9D00948406820F0030040
:10036000074948600846406840F00200486000BF06
:100370000348406800F00C000828F9D10CBD0000CB
:1003800000100240002002407047000010B51348E2
:10039000006840F0010011490860084640681049B3
:1003A00008400E494860084600680E4908400B495D
:1003B00008600846006820F480200860084640680D
:1003C00020F4FE0048604FF41F008860FFF768FFCC
:1003D0004FF000600449086010BD000000100240AA
:1003E0000000FFF8FFFFF6FE08ED00E0144800688B
:1003F00001280FD113480088B0F57A7F05DA11483B
:1004000000880A300F49088015E04FF0FF300C4992
:10041000086010E00A480068401C60B9094800887C
:10042000002805DD074800880A380649088002E0F0
:100430000120034908600348008803490880704789
:100440000400002000000020380400402048C0695B
:1004500040F002001E49C8610846806940F008006B
:1004600088611C48006820F440101A49086008465A
:10047000006840F42000086047201749088040F2D7
:10048000E730091D0880154800881349103108809D
:1004900011481038008820F4E0400F4910390880D6
:1004A0000846008840F4C04008800B48083800889F
:1004B00040F010000849083908801D2001218140C2
:1004C0004209920002F1E022C2F8001100BF704719
:1004D00000100240000C01402804004000000020F1
:1004E00000BFFEE7FFF7B2FFFFF7D2FE0648008825
:1004F00040F001000449088004E0044800880249F3
:1005000038310880F9E700000004004000000020B6
:100510003005000800000020080000002801000845
:1005200038050008080000206006000044010008AB
:080530000000000001000000C2
:04000005080000ED02
:00000001FF
