:020000040800F2
:100000009006002091010008FB070008F307000894
:10001000F70700088F060008FD0B0008000000002D
:10002000000000000000000000000000F5080008CB
:100030009306000800000000FD070008E109000821
:10004000AB010008AB010008AB010008AB010008E0
:10005000AB010008AB01000895060008AB010008E1
:10006000AB010008AB010008AB010008AB010008C0
:10007000AB010008AB010008AB010008AB010008B0
:10008000AB010008AB010008AB010008AB010008A0
:10009000AB010008AB010008AB010008AB01000890
:1000A000AB010008AB010008AB010008AB01000880
:1000B000AB010008AB010008AB010008AB01000870
:1000C000AB010008AB010008AB010008AB01000860
:1000D000AB010008AB010008AB010008AB01000850
:1000E000AB010008AB010008AB01000800F002F80A
:1000F00000F03FF80AA090E8000C82448344AAF183
:100100000107DA4501D100F034F8AFF2090EBAE880
:100110000F0013F0010F18BFFB1A43F0010318473B
:10012000280C0000480C0000103A24BF78C878C1A1
:10013000FAD8520724BF30C830C144BF04680C60ED
:10014000704700000023002400250026103A28BF35
:1001500078C1FBD8520728BF30C148BF0B60704739
:10016000642900F08380002070471FB51FBD10B5C3
:1001700010BD00F038F91146FFF7F7FF00F08EFDD3
:1001800000F056F903B4FFF7F2FF03BC00F05EF98C
:100190000948804709480047FEE7FEE7FEE7FEE71B
:1001A000FEE7FEE7FEE7FEE7FEE7FEE70448054957
:1001B000054A064B70470000E5090008ED000008FD
:1001C0009000002090060020900200209002002065
:1001D0000FB41CB50C0007AA009001D02044401EAB
:1001E000074B7B4469460190069800F0DCF8002C30
:1001F00003D06946002000F0E9F81CBC5DF814FB50
:10020000F10100002DE9F0410E4604460020206275
:100210002046E168884730B3252805D0D4E901217C
:100220009047206A401CF2E7E16820460027884793
:10023000050018D0A5F14100192802D820354FF447
:1002400000673246294620462760FFF789FF40B104
:10025000012804D0F61D26F007060836D8E7361D1B
:10026000D6E72846DAE7206ABDE8F0812DE9F041BB
:100270000646002410687529314616A510D0AFF344
:100280000080002802DA404213A507E031688A079F
:1002900001D512A502E0490704D511A5012401E00A
:1002A000AFF3008000210A2206F1240709E0B0FB29
:1002B000F2FCB0FBF2F302FB1C003030785418461D
:1002C000491C0028F3D123462A463046BDE8F041B8
:1002D00000F00BB8000000002D0000002B00000013
:1002E000200000007047704770472DE9F0470D4629
:1002F00099469246044600F124080168880604D510
:10030000E06921F01001216000E00120A84201DD38
:10031000471B00E00027A1697A1902EB0900081ABF
:10032000A0612078C00602D42046AFF300800026EA
:1003300008E0D4E901211AF806009047206A401C21
:10034000761C20624E45F4DB2078C0060AD5204694
:10035000AFF3008006E0D4E9012130209047206A05
:10036000401C2062381EA7F10107F4DC07E0D4E945
:10037000012118F805009047206A401C2062281EC1
:10038000A5F10105F3DC2046AFF3008020780006DC
:1003900002D50220BDE8F0870120FBE701694A1C75
:1003A00002610878704700B58FB0CDE901310021B6
:1003B000059105497944CDE9031011466846FFF7D8
:1003C00021FF0FB000BD0000E5FFFFFF0A6802F843
:1003D000010B0A607047D1E900239A4202D2531CF4
:1003E0000B6010707047754600F02CF8AE460500A3
:1003F0006946534620F00700854618B020B5FFF740
:10040000D5FEBDE820404FF000064FF000074FF04A
:1004100000084FF0000B21F00701AC46ACE8C00922
:10042000ACE8C009ACE8C009ACE8C0098D4670472B
:1004300010B50446AFF300802046BDE81040FFF73A
:10044000A1BE00000048704730000020014918207C
:10045000ABBEFEE7260002007047000000B587B083
:100460000121042000F0CCF90121480200F0C8F974
:100470000320ADF8180000208DF81B0006A91D48C8
:1004800000F02CF90020019001208DF808008DF873
:1004900009004FF4602003900020049002208DF8A2
:1004A000140001A9144800F059F80023012219464C
:1004B000114800F07BF80023022201210E4800F0D1
:1004C00075F801210C4800F01CF80B4800F0CAF840
:1004D00000BF094800F037F80028FAD1064800F0BC
:1004E000D1F800BF044800F017F80028FAD107B08F
:1004F00000BD00000008014000240140CA43026022
:10050000704721B1826842F00102826003E0826894
:1005100022F0010282607047014600208A6802F0E2
:1005200004020AB1012000E0002070470146C86CB7
:1005300080B270470246002013680B400BB10120C7
:1005400000E000207047014600208A6802F008029F
:100550000AB1012000E000207047000030B50246DB
:100560000020002350680F4C20400D790C6844EAAD
:1005700005242043506090680B4C2040D1E9025480
:100580002C434D7944EA450420439060D06A20F41E
:1005900070000C7C641EE4B2234340EA0350D06236
:1005A00030BD0000FFFEF0FFFDF7F1FFF0B504469F
:1005B0000D4600200021092D11DDE068A5F10A0695
:1005C00006EB4607072606FA07F18843A5F10A0657
:1005D00006EB460603FA06F10843E0600CE02069EA
:1005E00005EB4507072606FA07F1884305EB4506A4
:1005F00003FA06F108432061072A0FDA606B561EE2
:1006000006EB86071F2606FA07F18843561E06EBFF
:10061000860605FA06F10843606322E00D2A0FDA28
:10062000206BD61F06EB86071F2606FA07F18843C4
:10063000D61F06EB860605FA06F10843206310E094
:10064000E06AA2F10D0606EB86071F2606FA07F1FF
:100650008843A2F10D0606EB860605FA06F108436B
:10066000E062F0BD816841F008018160704721B10E
:10067000826842F4A002826003E0826822F4A00251
:1006800082607047816841F004018160704700BF5B
:10069000FEE7704710B5012000F00CF810B1012002
:1006A00000F002F810BD000001490860704700002A
:1006B00014040140014600200022074B1B6803EA96
:1006C0000102054B14331B680B4013B10AB1012022
:1006D00000E0002070470000000401402DE9F041D7
:1006E000024600250026002000230024002791F860
:1006F00003C00CF00F0591F803C00CF0100CBCF116
:10070000000F03D091F802C04CEA050591F800C033
:10071000BCF1000F31D0146800202BE04FF0010C29
:100720000CFA00F3B1F800C00CEA03069E4220D197
:1007300083004FF00F0C0CFA03F7BC4305FA03FCDF
:100740004CEA040491F803C0BCF1280F06D14FF025
:10075000010C0CFA00FCC2F814C00AE091F803C0C6
:10076000BCF1480F05D14FF0010C0CFA00FCC2F8A7
:1007700010C0401C0828D1D31460B1F800C0BCF1EF
:10078000FF0F34DD546800202EE000F1080C4FF01C
:10079000010808FA0CF3B1F800C00CEA03069E4207
:1007A00021D183004FF00F0C0CFA03F7BC4305FA7C
:1007B00003FC4CEA040491F803C0BCF1280F05D1F6
:1007C00000F1080C08FA0CF8C2F8148091F803C084
:1007D000BCF1480F07D100F1080C4FF0010808FAEE
:1007E0000CF8C2F81080401C0828CED35460BDE835
:1007F000F08100BFFEE700BFFEE7704770470000D2
:1008000029B1064A92690243044B9A6104E0034A03
:1008100092698243014B9A617047000000100240C8
:1008200030B500210022002400232D4D6D6805F015
:100830000C0121B1042905D0082923D105E0294D57
:10084000056022E0274D05601FE0254D6D6805F429
:100850007012234D6D6805F48034022505EB924239
:100860001CB9214D554305600BE01D4D6D6805F425
:1008700000351DB11C4D5543056002E0194D55432F
:10088000056002E0174D056000BF00BF144D6D68A4
:1008900005F0F0010909154D6B5C0568DD40456008
:1008A0000F4D6D6805F4E061090A104D6B5C4568F9
:1008B000DD4085600A4D6D6805F46051C90A0B4D35
:1008C0006B5C4568DD40C560054D6D6805F44041D1
:1008D000890B074D6B5CC568B5FBF3F5056130BD51
:1008E0000010024000127A0000093D001C000020A8
:1008F0002C000020704710B500F002F810BD000079
:100900000CB50020019000903348006840F480301E
:100910003149086000BF3048006800F400300090A2
:100920000198401C0190009818B90198B0F5A06F8B
:10093000F1D12948006800F4003010B10120009086
:1009400001E0002000900098012843D1234800686E
:1009500040F01000214908600846006820F00700B8
:1009600008600846006840F0020008601A484068C5
:10097000194948600846406848600846406840F4A5
:10098000806048600846406820F47C104860084653
:10099000406840F4E81048600846006840F0807005
:1009A000086000BF0C48006800F000700028F9D013
:1009B0000948406820F0030007494860084640683D
:1009C00040F00200486000BF0348406800F00C009F
:1009D0000828F9D10CBD00000010024000200240A0
:1009E0007047000010B51348006840F0010011493D
:1009F000086008464068104908400E4948600846AB
:100A000000680E4908400B4908600846006820F459
:100A1000802008600846406820F4FE0048604FF4DB
:100A20001F008860FFF767FF4FF00060044908600F
:100A300010BD0000001002400000FFF8FFFFF6FEAE
:100A400008ED00E000B585B0012144F20400FFF795
:100A5000D7FE4FF40070ADF8100018208DF8130089
:100A600003208DF8120004A91348FFF737FE4FF456
:100A70008060ADF8100004208DF8130004A90E4822
:100A8000FFF72CFE4FF4165000900020ADF8040044
:100A9000ADF80600ADF80800ADF80C000C20ADF87C
:100AA0000A006946054800F025F80121034800F0D6
:100AB00007F805B000BD0000000801400038014003
:100AC00021B1828942F40052828104E082894DF68C
:100AD000FF731A408281704702460020B1F5007F03
:100AE00000D100BF13880B400BB1012000E00020B3
:100AF000704700002DE9F04786B005460E460024F9
:100B0000A24600BFA1460027B08900B100BF2F4612
:100B10002C8A4CF6FF700440F08804432C82AC8988
:100B20004EF6F3100440B0883189084371890843B8
:100B30000443AC81AC8A4FF6FF400440B0890443C3
:100B4000AC8201A8FFF76CFE1F48874202D1DDF896
:100B500010A001E0DDF80CA0A88900F4004040B12D
:100B60000AEBCA0000EB0A1031684900B0FBF1F84B
:100B700007E00AEBCA0000EB0A1031688900B0FBFD
:100B8000F1F86420B8FBF0F004012009642101FBB6
:100B90001089A88900F4004040B1322000EBC90060
:100BA000B0FBF1F000F00700044308E0322000EB56
:100BB00009106421B0FBF1F000F00F0004432C8118
:100BC00006B0BDE8F087000000380140C1F308021C
:100BD0008280704770B505460C460BE014F8011B87
:100BE0002846FFF7F3FF00BF80212846FFF774FF78
:100BF0000028F9D020780028F0D170BD00BFFEE7B2
:100C00004FF0E020006920F001004FF0E021086182
:100C1000094800680949B0FBF1F009490870084625
:100C2000007800EB4001C1EBC0104FF6FF7101EA04
:100C3000C0000449088070470400002040420F00B3
:100C4000180000201A00002010B5044603E04FF4FD
:100C50007A7000F005F8201EA4F10104F7D110BD50
:100C600001460D4A12784A434FF0E0235A610022B0
:100C70009A6105221A6100BF4FF0E022106900F46A
:100C80008032002AF8D04FF0E022126922F00102EF
:100C90004FF0E0231A617047180000208EB0FFF774
:100CA000A1FEFFF7DBFBFFF7CDFEFFF7A9FF012158
:100CB0001D48FFF7DCFC36E000BF02211A48FFF7B1
:100CC00039FC0028F9D01848FFF730FC1749088094
:100CD00002211548FFF712FC01211348FFF7C7FC5A
:100CE00000BF02211048FFF725FC0028F9D00E486C
:100CF000FFF71CFC0D49488002210B48FFF7FEFB63
:100D00000A48408800900948038809A2322101A8B6
:100D1000FFF75EFA01A90B48FFF75CFF4FF47A700A
:100D2000FFF792FF00BFC7E700240140000000204A
:100D30005041303A2025642C205041313A2025641E
:100D40000D0A000000380140680D00080000002076
:100D50003000000028010008980D00083000002035
:100D600060060000440100080000000000A24A04E0
:100D7000000000000000000001020304060708094B
:100D8000000000000000000001020304010203044F
:080D9000060708090204060829
:04000005080000ED02
:00000001FF
